:100000000C942A000C9447000C9447000C94470071
:100010000C9447000C9447000C9447000C94470044
:100020000C9447000C9447000C9447000C94470034
:100030000C9447000C9447000C9447000C94470024
:100040000C9447000C9447000C9447000C94470014
:100050000C94470011241FBECFE5D4E0DEBFCDBF16
:1000600010E0A0E6B0E0EEEEF0E002C005900D92E8
:10007000AC36B107D9F710E0ACE6B0E001C01D9294
:10008000AC36B107E1F70E9449000C9475000C945E
:100090000000DF93CF93CDB7DEB72B970FB6F89460
:1000A000DEBF0FBECDBFDE011196E0E6F0E08BE0D3
:1000B00001900D928150E1F78FEF87BB20E0BE01E8
:1000C0006F5F7F4F48EC50E0FB01E20FF11D808134
:1000D00088BB84EF91E0FA013197F1F70197D9F7E6
:0E00E0002F5F2A3088F320E0EFCFF894FFCF97
:0C00EE00303132333435414243440000CD
:00000001FF
